:100000000C949A000C94BB000C94BB000C94BB00A5
:100010000C94BB000C94BB000C94BB000C94BB0074
:100020000C94BB000C94BB000C94BB000C94BB0064
:100030000C94BB000C94BB000C94BB000C94BB0054
:100040000C94BB000C94BB000C94BB000C94BB0044
:100050000C94BB000C94BB000C94BB000C94BB0034
:100060000C94BB000C94BB000C94BB000C94BB0024
:100070000C94BB000C94BB000C94BB000C94BB0014
:100080000C94BB000C94BB000C94BB000C94BB0004
:100090000C94BB000C94BB000C94BB000C94BB00F4
:1000A0000C94BB000C94BB000C94BB000C94BB00E4
:1000B0000C94BB000C94BB000C94BB000C94BB00D4
:1000C0000C94BB000C94BB000C94BB000C94BB00C4
:1000D0000C94BB000C94BB000C94BB000C94BB00B4
:1000E0000C94BB000C94BB000C94BB000C94BB00A4
:1000F0000C94BB000C94BB000C94BB000C94BB0094
:100100000C94BB000C94BB000C94BB000C94BB0083
:100110000C94BB000C94BB000C94BB000C94BB0073
:100120000C94BB000C94BB000C94BB000C94BB0063
:100130000C94BB0011241FBECFEFD1E8DEBFCDBFB2
:1001400000E00CBF12E0A0E0B2E0EAEDFAE000E06F
:100150000BBF02C007900D92A03BB107D9F723E077
:10016000A0EBB2E001C01D92AA33B207E1F70E94F2
:1001700074020C946B050C9400008091B002982FCF
:100180009F7080915401807F892B809354019091BE
:10019000B0028091B102992319F080935301089520
:1001A0008F7190914801907E892B8093480108952A
:1001B00093E090934201909141019F719830D9F75B
:1001C00080934201909141019F718913FBCF089563
:1001D000E9E3F1E08081816080831092B2021092A5
:1001E000B00281E08093330388E00E94D8008FE062
:1001F0008093B1020E94BD008BEE80935601ECE427
:10020000F1E0808180688083E4E4F1E080818F7D8B
:100210008083E8E4F1E080818F7980830895809382
:10022000B20288E00E94D8008FEF80934F01809146
:10023000B202882319F086E00C94D80008951F9329
:10024000CF93DF93D82F192FC62F89E00E94D800B3
:100250008FEF80934F01C09380019D2FED2FF12FE1
:10026000A1E8B1E08E2F891B8C1718F481918D9332
:10027000F9CF83E08093330382E080934201DF91E2
:10028000CF911F91089580913303823009F451C0BA
:1002900080914F0183FF41C050917B0180913903D0
:1002A000811125C040E0252F30E0842F90E02817F1
:1002B000390754F0FC01E058FE4F6081FC01ED5419
:1002C000FD4F60834F5FF1CF83EB92E09093350356
:1002D0008093340350933603F901ED54FD4F808130
:1002E00080933703809147018A558093380380912A
:1002F0004F01886080934F0180914C018F778093EC
:100300004C0180914C01806880934C0186E00E94F2
:10031000D80081E080933903089580914F0186FFD2
:1003200008C080914F01806480934F0186E00C9457
:10033000D80008958091C80087FF03C08091CE0047
:10034000089580E008958093CE008091C80085FFD5
:10035000FCCF0895BF92CF92DF92EF92FF920F935E
:100360001F93CF93DF93CDB7DEB7C45CD1090FB62F
:10037000F894DEBF0FBECDBF0E949A01182F8823CC
:10038000C9F00E94A3011136A9F48DE0E0E0F2E08B
:10039000DE01119601900D928A95E1F7FE013E96DD
:1003A00083E7DF011D928A95E9F76CE0CE010196A3
:1003B0000E941F0180913903813009F054C080915F
:1003C0003803282F082E000C330B3F938F93809116
:1003D00036031F928F9380E892E09F938F938E0154
:1003E0000F5F1F4F1F930F930E94820268010FB689
:1003F000F894DEBF0FBECDBF7801D7018D917D018E
:10040000882319F00E94A301F8CF65EA72E0C801C1
:100410000E947B027801F70181917F01882319F006
:100420000E94A301F8CFB0903403EB2CF090350379
:10043000909136038E2D8B19891730F4D7018D9149
:100440007D010E94A301F4CF62EA72E0C8010E941C
:100450007B02F60181916F01882319F00E94A301AC
:10046000F8CF10923903CC53DF4F0FB6F894DEBFAC
:100470000FBECDBFDF91CF911F910F91FF90EF90F5
:10048000DF90CF90BF9008951092CD0085E38093C8
:10049000CC001092C80088E18093C90086E0809368
:1004A000CA00089585B1817F85B9089510923903F6
:1004B0000FB6F894A89580916000886180936000E1
:1004C000109260000FBE0E9444020E94E80081E08A
:1004D0000E940F0181E0809336018EE084B985B1DE
:1004E0008E6085B90C9452020E9456020E9443010C
:1004F0000E94AA01FBCFFB01DC0101900D920020BC
:10050000E1F708950F931F93CF93DF93CDB7DEB735
:100510002E970FB6F894DEBF0FBECDBF0E891F8990
:1005200086E08C831A8309838FEF9FE79E838D83F8
:10053000AE01465E5F4F688D798DCE0101960E94B7
:10054000B102EF81F885E00FF11F10822E960FB6F1
:10055000F894DEBF0FBECDBFDF91CF911F910F91F9
:1005600008952F923F924F925F926F927F928F9257
:100570009F92AF92BF92CF92DF92EF92FF920F9332
:100580001F93CF93DF93CDB7DEB72B970FB6F894B9
:10059000DEBF0FBECDBF6C017B018A01FC0117825B
:1005A0001682838181FFCCC1CE0101963C01F60108
:1005B0009381F70193FD859193FF81917F018823BA
:1005C00009F4BAC1853239F493FD859193FF819185
:1005D0007F01853229F4B60190E00E94D104E7CF73
:1005E000912C212C312CFFE1F315D8F08B3279F0CE
:1005F00038F4803279F08332A1F4232D20611DC0BC
:100600008D3261F0803369F4232D216016C0832D73
:100610008260382EE32DE4603E2E2AC0F32DF86070
:100620001DC037FC2DC020ED280F2A3040F08E323F
:10063000B9F436FC81C1232D2064322E19C036FE58
:1006400006C08AE0989E200D1124922E11C0EAE087
:100650002E9E200D1124222EF32DF0623F2E08C075
:100660008C3621F4832D8068382E02C0883641F400
:10067000F70193FD859193FF81917F018111B3CFA4
:10068000982F9F7D9554933028F40C5F1F4F9FE364
:1006900099830DC0833631F0833771F0833509F0CB
:1006A00059C021C0F801808189830E5F1F4F8824C3
:1006B0008394912C530113C02801F2E04F0E511C7A
:1006C000F801A080B18036FE03C0692D70E002C041
:1006D0006FEF7FEFC5010E94C6044C018201F32D2C
:1006E000FF773F2E16C0280122E0420E511CF80170
:1006F000A080B18036FE03C0692D70E002C06FEFAC
:100700007FEFC5010E94BB044C01F32DF0683F2E22
:10071000820133FC1BC0822D90E088169906B0F44C
:10072000B60180E290E00E94D1042A94F4CFF50152
:1007300037FC859137FE81915F01B60190E00E9400
:10074000D10421102A9421E0821A91088114910485
:1007500071F7E8C0843611F0893641F5F80137FEAB
:1007600007C060817181828193810C5F1F4F08C037
:1007700060817181072E000C880B990B0E5F1F4F53
:10078000F32DFF763F2E97FF09C0909580957095C9
:1007900061957F4F8F4F9F4FF0683F2E2AE030E0EA
:1007A000A3010E940D05882E861845C0853731F4B7
:1007B000232D2F7EB22E2AE030E025C0932D997F85
:1007C000B92E8F36C1F018F4883579F0B5C080376E
:1007D00019F0883721F0B0C0E92FE061BE2EB4FED9
:1007E0000DC0FB2DF460BF2E09C034FE0AC0292FB6
:1007F0002660B22E06C028E030E005C020E130E0DF
:1008000002C020E132E0F801B7FE07C060817181CB
:10081000828193810C5F1F4F06C06081718180E0EF
:1008200090E00E5F1F4FA3010E940D05882E8618D1
:10083000FB2DFF773F2E36FE0DC0232D2E7FA22EDF
:10084000891458F434FE0BC032FC09C0832D8E7E0F
:10085000A82E05C0B82CA32C03C0B82C01C0B92CFD
:10086000A4FE0FC0FE01E80DF11D8081803321F44C
:100870009A2D997EA92E09C0A2FE06C0B394B39406
:1008800004C08A2D867809F0B394A3FC11C0A0FEA1
:1008900006C0B21488F4280C922C9B180EC0B21417
:1008A00060F4B60180E290E00E94D104B394F7CFE7
:1008B000B21418F42B1802C0982C212CA4FE10C0DE
:1008C000B60180E390E00E94D104A2FE17C0A1FC13
:1008D00003C088E790E002C088E590E0B6010CC054
:1008E0008A2D867859F0A1FE02C08BE201C080E219
:1008F000A7FC8DE2B60190E00E94D104891438F47F
:10090000B60180E390E00E94D1049A94F7CF8A94D4
:10091000F301E80DF11D8081B60190E00E94D10441
:100920008110F5CF222009F442CEB60180E290E09A
:100930000E94D1042A94F6CFF6018681978102C0E5
:100940008FEF9FEF2B960FB6F894DEBF0FBECDBF93
:10095000DF91CF911F910F91FF90EF90DF90CF909B
:10096000BF90AF909F908F907F906F905F904F90CF
:100970003F902F900895FC01059061507040011048
:10098000D8F7809590958E0F9F1F0895FC016150B8
:10099000704001900110D8F7809590958E0F9F1FA1
:1009A00008950F931F93CF93DF93FB01238121FDC4
:1009B00003C08FEF9FEF2CC022FF16C046815781E6
:1009C000248135814217530744F4A081B1819D01F0
:1009D0002F5F3F4F318320838C93268137812F5F98
:1009E0003F4F3783268314C08B01EC01FB01008449
:1009F000F185E02D1995892BE1F6D80116968D9198
:100A00009C911797019617969C938E931697CE01FB
:100A1000DF91CF911F910F910895FA01AA272830F5
:100A200051F1203181F1E8946F936E7F6E5F7F4FBB
:100A30008F4F9F4FAF4FB1E03ED0B4E03CD0670F37
:100A4000781F891F9A1FA11D680F791F8A1F911D8A
:100A5000A11D6A0F711D811D911DA11D20D009F4DA
:100A600068943F912AE0269F11243019305D31931C
:100A7000DEF6CF010895462F4770405D4193B3E005
:100A80000FD0C9F7F6CF462F4F70405D4A3318F0AC
:100A9000495D31FD4052419302D0A9F7EACFB4E05D
:100AA000A6959795879577956795BA95C9F7009715
:100AB0006105710508959B01AC010A2E06945795B6
:100AC000479537952795BA95C9F7620F731F841F0D
:0A0AD000951FA01D0895F894FFCFB4
:100ADA0048656C6C6F20576F726C642100000000CF
:100AEA0000000000000000000000000000000000FC
:100AFA0000000000000000000000000000000000EC
:100B0A0000000000000000000000000000000000DB
:100B1A0000000000000000000000000000000000CB
:100B2A0000000000000000000000000000000000BB
:100B3A0000000000000000000000000000000000AB
:100B4A00000000000000000000000000000000009B
:100B5A000A0D6E6577207472616D65212073697A5A
:100B6A00653A2025642C20525353493A202564645F
:100B7A00426D0A0D00636F6E74656E753A2000004F
:00000001FF
